{"abi":[{"type":"constructor","inputs":[],"stateMutability":"nonpayable"},{"type":"function","name":"Mint","inputs":[],"outputs":[],"stateMutability":"nonpayable"},{"type":"function","name":"approve","inputs":[{"name":"to","type":"address","internalType":"address"},{"name":"tokenId","type":"uint256","internalType":"uint256"}],"outputs":[],"stateMutability":"nonpayable"},{"type":"function","name":"balanceOf","inputs":[{"name":"owner","type":"address","internalType":"address"}],"outputs":[{"name":"","type":"uint256","internalType":"uint256"}],"stateMutability":"view"},{"type":"function","name":"baseTokenURI","inputs":[],"outputs":[{"name":"","type":"string","internalType":"string"}],"stateMutability":"pure"},{"type":"function","name":"getApproved","inputs":[{"name":"tokenId","type":"uint256","internalType":"uint256"}],"outputs":[{"name":"","type":"address","internalType":"address"}],"stateMutability":"view"},{"type":"function","name":"isApprovedForAll","inputs":[{"name":"owner","type":"address","internalType":"address"},{"name":"operator","type":"address","internalType":"address"}],"outputs":[{"name":"","type":"bool","internalType":"bool"}],"stateMutability":"view"},{"type":"function","name":"name","inputs":[],"outputs":[{"name":"","type":"string","internalType":"string"}],"stateMutability":"view"},{"type":"function","name":"ownerOf","inputs":[{"name":"tokenId","type":"uint256","internalType":"uint256"}],"outputs":[{"name":"","type":"address","internalType":"address"}],"stateMutability":"view"},{"type":"function","name":"safeTransferFrom","inputs":[{"name":"from","type":"address","internalType":"address"},{"name":"to","type":"address","internalType":"address"},{"name":"tokenId","type":"uint256","internalType":"uint256"}],"outputs":[],"stateMutability":"nonpayable"},{"type":"function","name":"safeTransferFrom","inputs":[{"name":"from","type":"address","internalType":"address"},{"name":"to","type":"address","internalType":"address"},{"name":"tokenId","type":"uint256","internalType":"uint256"},{"name":"data","type":"bytes","internalType":"bytes"}],"outputs":[],"stateMutability":"nonpayable"},{"type":"function","name":"setApprovalForAll","inputs":[{"name":"operator","type":"address","internalType":"address"},{"name":"approved","type":"bool","internalType":"bool"}],"outputs":[],"stateMutability":"nonpayable"},{"type":"function","name":"supportsInterface","inputs":[{"name":"interfaceId","type":"bytes4","internalType":"bytes4"}],"outputs":[{"name":"","type":"bool","internalType":"bool"}],"stateMutability":"view"},{"type":"function","name":"symbol","inputs":[],"outputs":[{"name":"","type":"string","internalType":"string"}],"stateMutability":"view"},{"type":"function","name":"tokenURI","inputs":[{"name":"tokenId","type":"uint256","internalType":"uint256"}],"outputs":[{"name":"","type":"string","internalType":"string"}],"stateMutability":"view"},{"type":"function","name":"transferFrom","inputs":[{"name":"from","type":"address","internalType":"address"},{"name":"to","type":"address","internalType":"address"},{"name":"tokenId","type":"uint256","internalType":"uint256"}],"outputs":[],"stateMutability":"nonpayable"},{"type":"event","name":"Approval","inputs":[{"name":"owner","type":"address","indexed":true,"internalType":"address"},{"name":"approved","type":"address","indexed":true,"internalType":"address"},{"name":"tokenId","type":"uint256","indexed":true,"internalType":"uint256"}],"anonymous":false},{"type":"event","name":"ApprovalForAll","inputs":[{"name":"owner","type":"address","indexed":true,"internalType":"address"},{"name":"operator","type":"address","indexed":true,"internalType":"address"},{"name":"approved","type":"bool","indexed":false,"internalType":"bool"}],"anonymous":false},{"type":"event","name":"Transfer","inputs":[{"name":"from","type":"address","indexed":true,"internalType":"address"},{"name":"to","type":"address","indexed":true,"internalType":"address"},{"name":"tokenId","type":"uint256","indexed":true,"internalType":"uint256"}],"anonymous":false}],"bytecode":{"object":"0x60806040523480156200001157600080fd5b506040518060400160405280600a815260200169105b1e5e1b595c93919560b21b8152506040518060400160405280600481526020016308298b2b60e31b815250816000908162000063919062000120565b50600162000072828262000120565b505050620001ec565b634e487b7160e01b600052604160045260246000fd5b600181811c90821680620000a657607f821691505b602082108103620000c757634e487b7160e01b600052602260045260246000fd5b50919050565b601f8211156200011b57600081815260208120601f850160051c81016020861015620000f65750805b601f850160051c820191505b81811015620001175782815560010162000102565b5050505b505050565b81516001600160401b038111156200013c576200013c6200007b565b62000154816200014d845462000091565b84620000cd565b602080601f8311600181146200018c5760008415620001735750858301515b600019600386901b1c1916600185901b17855562000117565b600085815260208120601f198616915b82811015620001bd578886015182559484019460019091019084016200019c565b5085821015620001dc5787850151600019600388901b60f8161c191681555b5050505050600190811b01905550565b6112fa80620001fc6000396000f3fe608060405234801561001057600080fd5b50600436106100f55760003560e01c80636352211e11610097578063b88d4fde11610066578063b88d4fde146101f4578063c87b56dd14610207578063d547cfb71461021a578063e985e9c51461025357600080fd5b80636352211e146101a557806370a08231146101b857806395d89b41146101d9578063a22cb465146101e157600080fd5b8063095ea7b3116100d3578063095ea7b31461016257806323b872dd1461017757806334c738841461018a57806342842e0e1461019257600080fd5b806301ffc9a7146100fa57806306fdde0314610122578063081812fc14610137575b600080fd5b61010d610108366004610e7e565b61028f565b60405190151581526020015b60405180910390f35b61012a6102e1565b6040516101199190610ef3565b61014a610145366004610f06565b610373565b6040516001600160a01b039091168152602001610119565b610175610170366004610f3b565b61039a565b005b610175610185366004610f65565b6104b4565b6101756104e5565b6101756101a0366004610f65565b6104f2565b61014a6101b3366004610f06565b61050d565b6101cb6101c6366004610fa1565b61056d565b604051908152602001610119565b61012a6105f3565b6101756101ef366004610fbc565b610602565b61017561020236600461100e565b610611565b61012a610215366004610f06565b610649565b60408051808201909152601781527f68747470733a2f2f6a736f6e6b65657065722e636f6d2f000000000000000000602082015261012a565b61010d6102613660046110ea565b6001600160a01b03918216600090815260056020908152604080832093909416825291909152205460ff1690565b60006001600160e01b031982166380ac58cd60e01b14806102c057506001600160e01b03198216635b5e139f60e01b145b806102db57506301ffc9a760e01b6001600160e01b03198316145b92915050565b6060600080546102f09061111d565b80601f016020809104026020016040519081016040528092919081815260200182805461031c9061111d565b80156103695780601f1061033e57610100808354040283529160200191610369565b820191906000526020600020905b81548152906001019060200180831161034c57829003601f168201915b5050505050905090565b600061037e826106bd565b506000908152600460205260409020546001600160a01b031690565b60006103a58261050d565b9050806001600160a01b0316836001600160a01b0316036104175760405162461bcd60e51b815260206004820152602160248201527f4552433732313a20617070726f76616c20746f2063757272656e74206f776e656044820152603960f91b60648201526084015b60405180910390fd5b336001600160a01b038216148061043357506104338133610261565b6104a55760405162461bcd60e51b815260206004820152603d60248201527f4552433732313a20617070726f76652063616c6c6572206973206e6f7420746f60448201527f6b656e206f776e6572206f7220617070726f76656420666f7220616c6c000000606482015260840161040e565b6104af838361071f565b505050565b6104be338261078d565b6104da5760405162461bcd60e51b815260040161040e90611157565b6104af83838361080c565b6104f0336000610970565b565b6104af83838360405180602001604052806000815250610611565b6000818152600260205260408120546001600160a01b0316806102db5760405162461bcd60e51b8152602060048201526018602482015277115490cdcc8c4e881a5b9d985b1a59081d1bdad95b88125160421b604482015260640161040e565b60006001600160a01b0382166105d75760405162461bcd60e51b815260206004820152602960248201527f4552433732313a2061646472657373207a65726f206973206e6f7420612076616044820152683634b21037bbb732b960b91b606482015260840161040e565b506001600160a01b031660009081526003602052604090205490565b6060600180546102f09061111d565b61060d338383610afb565b5050565b61061b338361078d565b6106375760405162461bcd60e51b815260040161040e90611157565b61064384848484610bc9565b50505050565b6060610654826106bd565b600061066b60408051602081019091526000815290565b9050600081511161068b57604051806020016040528060008152506106b6565b8061069584610bfc565b6040516020016106a69291906111a4565b6040516020818303038152906040525b9392505050565b6000818152600260205260409020546001600160a01b031661071c5760405162461bcd60e51b8152602060048201526018602482015277115490cdcc8c4e881a5b9d985b1a59081d1bdad95b88125160421b604482015260640161040e565b50565b600081815260046020526040902080546001600160a01b0319166001600160a01b03841690811790915581906107548261050d565b6001600160a01b03167f8c5be1e5ebec7d5bd14f71427d1e84f3dd0314c0f7b2291e5b200ac8c7c3b92560405160405180910390a45050565b6000806107998361050d565b9050806001600160a01b0316846001600160a01b031614806107e057506001600160a01b0380821660009081526005602090815260408083209388168352929052205460ff165b806108045750836001600160a01b03166107f984610373565b6001600160a01b0316145b949350505050565b826001600160a01b031661081f8261050d565b6001600160a01b0316146108455760405162461bcd60e51b815260040161040e906111d3565b6001600160a01b0382166108a75760405162461bcd60e51b8152602060048201526024808201527f4552433732313a207472616e7366657220746f20746865207a65726f206164646044820152637265737360e01b606482015260840161040e565b826001600160a01b03166108ba8261050d565b6001600160a01b0316146108e05760405162461bcd60e51b815260040161040e906111d3565b600081815260046020908152604080832080546001600160a01b03199081169091556001600160a01b0387811680865260038552838620805460001901905590871680865283862080546001019055868652600290945282852080549092168417909155905184937fddf252ad1be2c89b69c2b068fc378daa952ba7f163c4a11628f55a4df523b3ef91a4505050565b6001600160a01b0382166109c65760405162461bcd60e51b815260206004820181905260248201527f4552433732313a206d696e7420746f20746865207a65726f2061646472657373604482015260640161040e565b6000818152600260205260409020546001600160a01b031615610a2b5760405162461bcd60e51b815260206004820152601c60248201527f4552433732313a20746f6b656e20616c7265616479206d696e74656400000000604482015260640161040e565b6000818152600260205260409020546001600160a01b031615610a905760405162461bcd60e51b815260206004820152601c60248201527f4552433732313a20746f6b656e20616c7265616479206d696e74656400000000604482015260640161040e565b6001600160a01b038216600081815260036020908152604080832080546001019055848352600290915280822080546001600160a01b0319168417905551839291907fddf252ad1be2c89b69c2b068fc378daa952ba7f163c4a11628f55a4df523b3ef908290a45050565b816001600160a01b0316836001600160a01b031603610b5c5760405162461bcd60e51b815260206004820152601960248201527f4552433732313a20617070726f766520746f2063616c6c657200000000000000604482015260640161040e565b6001600160a01b03838116600081815260056020908152604080832094871680845294825291829020805460ff191686151590811790915591519182527f17307eab39ab6107e8899845ad3d59bd9653f200f220920489ca2b5937696c31910160405180910390a3505050565b610bd484848461080c565b610be084848484610c8f565b6106435760405162461bcd60e51b815260040161040e90611218565b60606000610c0983610d90565b600101905060008167ffffffffffffffff811115610c2957610c29610ff8565b6040519080825280601f01601f191660200182016040528015610c53576020820181803683370190505b5090508181016020015b600019016f181899199a1a9b1b9c1cb0b131b232b360811b600a86061a8153600a8504945084610c5d57509392505050565b60006001600160a01b0384163b15610d8557604051630a85bd0160e11b81526001600160a01b0385169063150b7a0290610cd390339089908890889060040161126a565b6020604051808303816000875af1925050508015610d0e575060408051601f3d908101601f19168201909252610d0b918101906112a7565b60015b610d6b573d808015610d3c576040519150601f19603f3d011682016040523d82523d6000602084013e610d41565b606091505b508051600003610d635760405162461bcd60e51b815260040161040e90611218565b805181602001fd5b6001600160e01b031916630a85bd0160e11b149050610804565b506001949350505050565b60008072184f03e93ff9f4daa797ed6e38ed64bf6a1f0160401b8310610dcf5772184f03e93ff9f4daa797ed6e38ed64bf6a1f0160401b830492506040015b6d04ee2d6d415b85acef81000000008310610dfb576d04ee2d6d415b85acef8100000000830492506020015b662386f26fc100008310610e1957662386f26fc10000830492506010015b6305f5e1008310610e31576305f5e100830492506008015b6127108310610e4557612710830492506004015b60648310610e57576064830492506002015b600a83106102db5760010192915050565b6001600160e01b03198116811461071c57600080fd5b600060208284031215610e9057600080fd5b81356106b681610e68565b60005b83811015610eb6578181015183820152602001610e9e565b838111156106435750506000910152565b60008151808452610edf816020860160208601610e9b565b601f01601f19169290920160200192915050565b6020815260006106b66020830184610ec7565b600060208284031215610f1857600080fd5b5035919050565b80356001600160a01b0381168114610f3657600080fd5b919050565b60008060408385031215610f4e57600080fd5b610f5783610f1f565b946020939093013593505050565b600080600060608486031215610f7a57600080fd5b610f8384610f1f565b9250610f9160208501610f1f565b9150604084013590509250925092565b600060208284031215610fb357600080fd5b6106b682610f1f565b60008060408385031215610fcf57600080fd5b610fd883610f1f565b915060208301358015158114610fed57600080fd5b809150509250929050565b634e487b7160e01b600052604160045260246000fd5b6000806000806080858703121561102457600080fd5b61102d85610f1f565b935061103b60208601610f1f565b925060408501359150606085013567ffffffffffffffff8082111561105f57600080fd5b818701915087601f83011261107357600080fd5b81358181111561108557611085610ff8565b604051601f8201601f19908116603f011681019083821181831017156110ad576110ad610ff8565b816040528281528a60208487010111156110c657600080fd5b82602086016020830137600060208483010152809550505050505092959194509250565b600080604083850312156110fd57600080fd5b61110683610f1f565b915061111460208401610f1f565b90509250929050565b600181811c9082168061113157607f821691505b60208210810361115157634e487b7160e01b600052602260045260246000fd5b50919050565b6020808252602d908201527f4552433732313a2063616c6c6572206973206e6f7420746f6b656e206f776e6560408201526c1c881bdc88185c1c1c9bdd9959609a1b606082015260800190565b600083516111b6818460208801610e9b565b8351908301906111ca818360208801610e9b565b01949350505050565b60208082526025908201527f4552433732313a207472616e736665722066726f6d20696e636f72726563742060408201526437bbb732b960d91b606082015260800190565b60208082526032908201527f4552433732313a207472616e7366657220746f206e6f6e20455243373231526560408201527131b2b4bb32b91034b6b83632b6b2b73a32b960711b606082015260800190565b6001600160a01b038581168252841660208201526040810183905260806060820181905260009061129d90830184610ec7565b9695505050505050565b6000602082840312156112b957600080fd5b81516106b681610e6856fea2646970667358221220e927452e7bb24ec9393942ea1841b30c729215ef39f7ba4bbba59ab90896277864736f6c634300080f0033","linkReferences":{}},"methodIdentifiers":{"Mint()":"34c73884","approve(address,uint256)":"095ea7b3","balanceOf(address)":"70a08231","baseTokenURI()":"d547cfb7","getApproved(uint256)":"081812fc","isApprovedForAll(address,address)":"e985e9c5","name()":"06fdde03","ownerOf(uint256)":"6352211e","safeTransferFrom(address,address,uint256)":"42842e0e","safeTransferFrom(address,address,uint256,bytes)":"b88d4fde","setApprovalForAll(address,bool)":"a22cb465","supportsInterface(bytes4)":"01ffc9a7","symbol()":"95d89b41","tokenURI(uint256)":"c87b56dd","transferFrom(address,address,uint256)":"23b872dd"},"id":0}