{"abi":[{"type":"constructor","inputs":[{"name":"_middleware","type":"address","internalType":"address"}],"stateMutability":"nonpayable"},{"type":"receive","stateMutability":"payable"},{"type":"function","name":"CreateOrUpdateClass","inputs":[],"outputs":[],"stateMutability":"nonpayable"},{"type":"function","name":"GetOwner","inputs":[{"name":"tknid","type":"uint256","internalType":"uint256"}],"outputs":[{"name":"","type":"address","internalType":"address"}],"stateMutability":"view"},{"type":"function","name":"ackPackets","inputs":[{"name":"","type":"uint256","internalType":"uint256"}],"outputs":[{"name":"channelId","type":"bytes32","internalType":"bytes32"},{"name":"packet","type":"tuple","internalType":"struct UniversalPacket","components":[{"name":"srcPortAddr","type":"bytes32","internalType":"bytes32"},{"name":"mwBitmap","type":"uint256","internalType":"uint256"},{"name":"destPortAddr","type":"bytes32","internalType":"bytes32"},{"name":"appData","type":"bytes","internalType":"bytes"}]},{"name":"ack","type":"tuple","internalType":"struct AckPacket","components":[{"name":"success","type":"bool","internalType":"bool"},{"name":"data","type":"bytes","internalType":"bytes"}]}],"stateMutability":"view"},{"type":"function","name":"approve","inputs":[{"name":"to","type":"address","internalType":"address"},{"name":"tokenId","type":"uint256","internalType":"uint256"}],"outputs":[],"stateMutability":"nonpayable"},{"type":"function","name":"authorizeMiddleware","inputs":[{"name":"middleware","type":"address","internalType":"address"}],"outputs":[],"stateMutability":"nonpayable"},{"type":"function","name":"authorizedMws","inputs":[{"name":"","type":"address","internalType":"address"}],"outputs":[{"name":"","type":"bool","internalType":"bool"}],"stateMutability":"view"},{"type":"function","name":"balanceOf","inputs":[{"name":"owner","type":"address","internalType":"address"}],"outputs":[{"name":"","type":"uint256","internalType":"uint256"}],"stateMutability":"view"},{"type":"function","name":"combineUintAndAddress","inputs":[{"name":"uintPart","type":"uint256","internalType":"uint256"},{"name":"addressPart","type":"address","internalType":"address"}],"outputs":[{"name":"","type":"uint256","internalType":"uint256"}],"stateMutability":"pure"},{"type":"function","name":"extractUintAndAddress","inputs":[{"name":"combinedValue","type":"uint256","internalType":"uint256"}],"outputs":[{"name":"uintPart","type":"uint256","internalType":"uint256"},{"name":"addressPart","type":"address","internalType":"address"}],"stateMutability":"pure"},{"type":"function","name":"getApproved","inputs":[{"name":"tokenId","type":"uint256","internalType":"uint256"}],"outputs":[{"name":"","type":"address","internalType":"address"}],"stateMutability":"view"},{"type":"function","name":"getChainId","inputs":[],"outputs":[{"name":"","type":"uint256","internalType":"uint256"}],"stateMutability":"view"},{"type":"function","name":"getClass","inputs":[],"outputs":[],"stateMutability":"nonpayable"},{"type":"function","name":"getNFT","inputs":[{"name":"classId","type":"address","internalType":"address"},{"name":"tokenId","type":"uint256","internalType":"uint256"}],"outputs":[],"stateMutability":"nonpayable"},{"type":"function","name":"initiateSend","inputs":[{"name":"_nftContract","type":"address","internalType":"address"},{"name":"_tokenId","type":"uint256","internalType":"uint256"},{"name":"_receiver","type":"address","internalType":"address"},{"name":"_chainId","type":"uint64","internalType":"uint64"}],"outputs":[],"stateMutability":"nonpayable"},{"type":"function","name":"isApprovedForAll","inputs":[{"name":"owner","type":"address","internalType":"address"},{"name":"operator","type":"address","internalType":"address"}],"outputs":[{"name":"","type":"bool","internalType":"bool"}],"stateMutability":"view"},{"type":"function","name":"mw","inputs":[],"outputs":[{"name":"","type":"address","internalType":"address"}],"stateMutability":"view"},{"type":"function","name":"name","inputs":[],"outputs":[{"name":"","type":"string","internalType":"string"}],"stateMutability":"view"},{"type":"function","name":"onERC721Received","inputs":[{"name":"operator","type":"address","internalType":"address"},{"name":"from","type":"address","internalType":"address"},{"name":"tokenId","type":"uint256","internalType":"uint256"},{"name":"data","type":"bytes","internalType":"bytes"}],"outputs":[{"name":"","type":"bytes4","internalType":"bytes4"}],"stateMutability":"pure"},{"type":"function","name":"onRecvUniversalPacket","inputs":[{"name":"_channelId","type":"bytes32","internalType":"bytes32"},{"name":"packet","type":"tuple","internalType":"struct UniversalPacket","components":[{"name":"srcPortAddr","type":"bytes32","internalType":"bytes32"},{"name":"mwBitmap","type":"uint256","internalType":"uint256"},{"name":"destPortAddr","type":"bytes32","internalType":"bytes32"},{"name":"appData","type":"bytes","internalType":"bytes"}]}],"outputs":[{"name":"ackPacket","type":"tuple","internalType":"struct AckPacket","components":[{"name":"success","type":"bool","internalType":"bool"},{"name":"data","type":"bytes","internalType":"bytes"}]}],"stateMutability":"nonpayable"},{"type":"function","name":"onRecvUniversalPacketTest","inputs":[{"name":"_channelId","type":"bytes32","internalType":"bytes32"},{"name":"packet","type":"tuple","internalType":"struct UniversalPacket","components":[{"name":"srcPortAddr","type":"bytes32","internalType":"bytes32"},{"name":"mwBitmap","type":"uint256","internalType":"uint256"},{"name":"destPortAddr","type":"bytes32","internalType":"bytes32"},{"name":"appData","type":"bytes","internalType":"bytes"}]}],"outputs":[{"name":"ackPacket","type":"tuple","internalType":"struct AckPacket","components":[{"name":"success","type":"bool","internalType":"bool"},{"name":"data","type":"bytes","internalType":"bytes"}]}],"stateMutability":"nonpayable"},{"type":"function","name":"onTimeoutUniversalPacket","inputs":[{"name":"_channelId","type":"bytes32","internalType":"bytes32"},{"name":"packet","type":"tuple","internalType":"struct UniversalPacket","components":[{"name":"srcPortAddr","type":"bytes32","internalType":"bytes32"},{"name":"mwBitmap","type":"uint256","internalType":"uint256"},{"name":"destPortAddr","type":"bytes32","internalType":"bytes32"},{"name":"appData","type":"bytes","internalType":"bytes"}]}],"outputs":[],"stateMutability":"nonpayable"},{"type":"function","name":"onUniversalAcknowledgement","inputs":[{"name":"_channelId","type":"bytes32","internalType":"bytes32"},{"name":"packet","type":"tuple","internalType":"struct UniversalPacket","components":[{"name":"srcPortAddr","type":"bytes32","internalType":"bytes32"},{"name":"mwBitmap","type":"uint256","internalType":"uint256"},{"name":"destPortAddr","type":"bytes32","internalType":"bytes32"},{"name":"appData","type":"bytes","internalType":"bytes"}]},{"name":"ack","type":"tuple","internalType":"struct AckPacket","components":[{"name":"success","type":"bool","internalType":"bool"},{"name":"data","type":"bytes","internalType":"bytes"}]}],"outputs":[],"stateMutability":"nonpayable"},{"type":"function","name":"owner","inputs":[],"outputs":[{"name":"","type":"address","internalType":"address"}],"stateMutability":"view"},{"type":"function","name":"ownerOf","inputs":[{"name":"tokenId","type":"uint256","internalType":"uint256"}],"outputs":[{"name":"","type":"address","internalType":"address"}],"stateMutability":"view"},{"type":"function","name":"recvedPackets","inputs":[{"name":"","type":"uint256","internalType":"uint256"}],"outputs":[{"name":"channelId","type":"bytes32","internalType":"bytes32"},{"name":"packet","type":"tuple","internalType":"struct UniversalPacket","components":[{"name":"srcPortAddr","type":"bytes32","internalType":"bytes32"},{"name":"mwBitmap","type":"uint256","internalType":"uint256"},{"name":"destPortAddr","type":"bytes32","internalType":"bytes32"},{"name":"appData","type":"bytes","internalType":"bytes"}]}],"stateMutability":"view"},{"type":"function","name":"renounceOwnership","inputs":[],"outputs":[],"stateMutability":"nonpayable"},{"type":"function","name":"safeTransferFrom","inputs":[{"name":"from","type":"address","internalType":"address"},{"name":"to","type":"address","internalType":"address"},{"name":"tokenId","type":"uint256","internalType":"uint256"}],"outputs":[],"stateMutability":"nonpayable"},{"type":"function","name":"safeTransferFrom","inputs":[{"name":"from","type":"address","internalType":"address"},{"name":"to","type":"address","internalType":"address"},{"name":"tokenId","type":"uint256","internalType":"uint256"},{"name":"data","type":"bytes","internalType":"bytes"}],"outputs":[],"stateMutability":"nonpayable"},{"type":"function","name":"setApprovalForAll","inputs":[{"name":"operator","type":"address","internalType":"address"},{"name":"approved","type":"bool","internalType":"bool"}],"outputs":[],"stateMutability":"nonpayable"},{"type":"function","name":"setDefaultMw","inputs":[{"name":"_middleware","type":"address","internalType":"address"}],"outputs":[],"stateMutability":"nonpayable"},{"type":"function","name":"supportsInterface","inputs":[{"name":"interfaceId","type":"bytes4","internalType":"bytes4"}],"outputs":[{"name":"","type":"bool","internalType":"bool"}],"stateMutability":"view"},{"type":"function","name":"symbol","inputs":[],"outputs":[{"name":"","type":"string","internalType":"string"}],"stateMutability":"view"},{"type":"function","name":"timeoutPackets","inputs":[{"name":"","type":"uint256","internalType":"uint256"}],"outputs":[{"name":"channelId","type":"bytes32","internalType":"bytes32"},{"name":"packet","type":"tuple","internalType":"struct UniversalPacket","components":[{"name":"srcPortAddr","type":"bytes32","internalType":"bytes32"},{"name":"mwBitmap","type":"uint256","internalType":"uint256"},{"name":"destPortAddr","type":"bytes32","internalType":"bytes32"},{"name":"appData","type":"bytes","internalType":"bytes"}]}],"stateMutability":"view"},{"type":"function","name":"tokenURI","inputs":[{"name":"tokenId","type":"uint256","internalType":"uint256"}],"outputs":[{"name":"","type":"string","internalType":"string"}],"stateMutability":"view"},{"type":"function","name":"transferFrom","inputs":[{"name":"from","type":"address","internalType":"address"},{"name":"to","type":"address","internalType":"address"},{"name":"tokenId","type":"uint256","internalType":"uint256"}],"outputs":[],"stateMutability":"nonpayable"},{"type":"function","name":"transferOwnership","inputs":[{"name":"newOwner","type":"address","internalType":"address"}],"outputs":[],"stateMutability":"nonpayable"},{"type":"event","name":"Approval","inputs":[{"name":"owner","type":"address","indexed":true,"internalType":"address"},{"name":"approved","type":"address","indexed":true,"internalType":"address"},{"name":"tokenId","type":"uint256","indexed":true,"internalType":"uint256"}],"anonymous":false},{"type":"event","name":"ApprovalForAll","inputs":[{"name":"owner","type":"address","indexed":true,"internalType":"address"},{"name":"operator","type":"address","indexed":true,"internalType":"address"},{"name":"approved","type":"bool","indexed":false,"internalType":"bool"}],"anonymous":false},{"type":"event","name":"NFTPayload","inputs":[{"name":"payload","type":"bytes","indexed":false,"internalType":"bytes"}],"anonymous":false},{"type":"event","name":"OwnershipTransferred","inputs":[{"name":"previousOwner","type":"address","indexed":true,"internalType":"address"},{"name":"newOwner","type":"address","indexed":true,"internalType":"address"}],"anonymous":false},{"type":"event","name":"Transfer","inputs":[{"name":"from","type":"address","indexed":true,"internalType":"address"},{"name":"to","type":"address","indexed":true,"internalType":"address"},{"name":"tokenId","type":"uint256","indexed":true,"internalType":"uint256"}],"anonymous":false}],"bytecode":{"object":"0x60806040523480156200001157600080fd5b50604051620037df380380620037df833981016040819052620000349162000177565b6040518060400160405280601481526020017f506f6c796d6572427269646765566f75636865720000000000000000000000008152506040518060400160405280600381526020016228212b60e91b8152508280620000a26200009c6200012360201b60201c565b62000127565b600180546001600160a01b0319166001600160a01b038316179055620000e6816001600160a01b03166000908152600260205260409020805460ff19166001179055565b5060069050620000f783826200024e565b5060076200010682826200024e565b5050600c80546001600160a01b03191633179055506200031a9050565b3390565b600080546001600160a01b038381166001600160a01b0319831681178455604051919092169283917f8be0079c531659141344cd1fd0a4f28419497f9722a3daafe3b4186f6b6457e09190a35050565b6000602082840312156200018a57600080fd5b81516001600160a01b0381168114620001a257600080fd5b9392505050565b634e487b7160e01b600052604160045260246000fd5b600181811c90821680620001d457607f821691505b602082108103620001f557634e487b7160e01b600052602260045260246000fd5b50919050565b601f8211156200024957600081815260208120601f850160051c81016020861015620002245750805b601f850160051c820191505b81811015620002455782815560010162000230565b5050505b505050565b81516001600160401b038111156200026a576200026a620001a9565b62000282816200027b8454620001bf565b84620001fb565b602080601f831160018114620002ba5760008415620002a15750858301515b600019600386901b1c1916600185901b17855562000245565b600085815260208120601f198616915b82811015620002eb57888601518255948401946001909101908401620002ca565b50858210156200030a5787850151600019600388901b60f8161c191681555b5050505050600190811b01905550565b6134b5806200032a6000396000f3fe6080604052600436106102125760003560e01c8063588152ca11610118578063a742d78c116100a0578063ce19c33d1161006f578063ce19c33d14610632578063d9b25ece1461066f578063e985e9c51461068f578063f12b758a146106d8578063f2fde38b146106f857600080fd5b8063a742d78c146105b2578063af43fb69146105d2578063b88d4fde146105f2578063c87b56dd1461061257600080fd5b8063715018a6116100e7578063715018a61461054a5780638da5cb5b1461055f57806395d89b411461057d578063a22cb46514610592578063a4edb083146104be57600080fd5b8063588152ca146104ca5780635b761585146104ea5780636352211e1461050a57806370a082311461052a57600080fd5b80633408e4701161019b5780634252ae9b1161016a5780634252ae9b1461042157806342842e0e146104505780634eeb7391146104705780635619de3f1461049e57806357e61ea4146104be57600080fd5b80633408e470146103945780633a7fbcbd146103b15780633b90b042146103e1578063400d9f5d1461040157600080fd5b8063095ea7b3116101e2578063095ea7b3146102cf578063150b7a02146102ef5780632207bdcf1461032857806323b872dd146103475780632eee770a1461036757600080fd5b8062e82cef1461021e57806301ffc9a71461024057806306fdde0314610275578063081812fc1461029757600080fd5b3661021957005b600080fd5b34801561022a57600080fd5b5061023e6102393660046125dd565b610718565b005b34801561024c57600080fd5b5061026061025b366004612610565b61074b565b60405190151581526020015b60405180910390f35b34801561028157600080fd5b5061028a61079d565b60405161026c9190612685565b3480156102a357600080fd5b506102b76102b2366004612698565b61082f565b6040516001600160a01b03909116815260200161026c565b3480156102db57600080fd5b5061023e6102ea3660046126b1565b610856565b3480156102fb57600080fd5b5061030f61030a3660046127c9565b610970565b6040516001600160e01b0319909116815260200161026c565b34801561033457600080fd5b5061023e6103433660046126b1565b5050565b34801561035357600080fd5b5061023e610362366004612834565b61099a565b34801561037357600080fd5b5061038761038236600461288d565b6109cb565b60405161026c91906128f4565b3480156103a057600080fd5b50465b60405190815260200161026c565b3480156103bd57600080fd5b506102606103cc3660046125dd565b60026020526000908152604090205460ff1681565b3480156103ed57600080fd5b5061023e6103fc3660046125dd565b610b31565b34801561040d57600080fd5b5061023e61041c36600461288d565b610b45565b34801561042d57600080fd5b5061044161043c366004612698565b610bf2565b60405161026c9392919061293a565b34801561045c57600080fd5b5061023e61046b366004612834565b610d96565b34801561047c57600080fd5b5061049061048b366004612698565b610db1565b60405161026c92919061296f565b3480156104aa57600080fd5b5061023e6104b9366004612988565b610e9f565b34801561023e57600080fd5b3480156104d657600080fd5b5061023e6104e53660046129e7565b6110a2565b3480156104f657600080fd5b5061038761050536600461288d565b6110eb565b34801561051657600080fd5b506102b7610525366004612698565b6111b7565b34801561053657600080fd5b506103a36105453660046125dd565b611217565b34801561055657600080fd5b5061023e61129d565b34801561056b57600080fd5b506000546001600160a01b03166102b7565b34801561058957600080fd5b5061028a6112af565b34801561059e57600080fd5b5061023e6105ad366004612a6a565b6112be565b3480156105be57600080fd5b506001546102b7906001600160a01b031681565b3480156105de57600080fd5b506102b76105ed366004612698565b6112c9565b3480156105fe57600080fd5b5061023e61060d3660046127c9565b6112d4565b34801561061e57600080fd5b5061028a61062d366004612698565b61130c565b34801561063e57600080fd5b5061065261064d366004612698565b611380565b604080519283526001600160a01b0390911660208301520161026c565b34801561067b57600080fd5b506103a361068a366004612a9f565b6113a3565b34801561069b57600080fd5b506102606106aa366004612acf565b6001600160a01b039182166000908152600b6020908152604080832093909416825291909152205460ff1690565b3480156106e457600080fd5b506104906106f3366004612698565b6113c7565b34801561070457600080fd5b5061023e6107133660046125dd565b6113d7565b61072061144d565b610729816114a7565b600180546001600160a01b0319166001600160a01b0392909216919091179055565b60006001600160e01b031982166380ac58cd60e01b148061077c57506001600160e01b03198216635b5e139f60e01b145b8061079757506301ffc9a760e01b6001600160e01b03198316145b92915050565b6060600680546107ac90612afd565b80601f01602080910402602001604051908101604052809291908181526020018280546107d890612afd565b80156108255780601f106107fa57610100808354040283529160200191610825565b820191906000526020600020905b81548152906001019060200180831161080857829003601f168201915b5050505050905090565b600061083a826114cb565b506000908152600a60205260409020546001600160a01b031690565b6000610861826111b7565b9050806001600160a01b0316836001600160a01b0316036108d35760405162461bcd60e51b815260206004820152602160248201527f4552433732313a20617070726f76616c20746f2063757272656e74206f776e656044820152603960f91b60648201526084015b60405180910390fd5b336001600160a01b03821614806108ef57506108ef81336106aa565b6109615760405162461bcd60e51b815260206004820152603d60248201527f4552433732313a20617070726f76652063616c6c6572206973206e6f7420746f60448201527f6b656e206f776e6572206f7220617070726f76656420666f7220616c6c00000060648201526084016108ca565b61096b838361152a565b505050565b7f150b7a023d4804d13e8c85fb27262cb750cf6ba9f9dd3bb30d90f482ceeb4b1f5b949350505050565b6109a43382611598565b6109c05760405162461bcd60e51b81526004016108ca90612b31565b61096b838383611616565b604080518082019091526000815260606020820152610a08604051806040016040528060078152602001667375636365737360c81b81525061177a565b6000610a176060840184612b7e565b8080601f01602080910402602001604051908101604052809392919081815260200183838082843760009201919091525050604080518082019091526008815267737563636573733160c01b6020820152929350610a7892915061177a9050565b600081806020019051810190610a8e9190612c1b565b9050610ab96040518060400160405280600881526020016739bab1b1b2b9b99960c11b81525061177a565b610ac681608001516117bd565b610ad285853583611802565b6040518060400160405280600115158152602001604051602001610b16906020808252600c908201526b1058dadb9bdddb195919d95960a21b604082015260600190565b60408051601f19818403018152919052905295945050505050565b610b3961144d565b610b42816114a7565b50565b3360009081526002602052604090205460ff16610b745760405162461bcd60e51b81526004016108ca90612d7e565b6005604051806040016040528084815260200183610b9190612db5565b905281546001818101845560009384526020938490208351600590930201918255838301518051918301918255938401516002830155604084015160038301556060840151929391926004840190610be99082612e79565b50505050505050565b60048181548110610c0257600080fd5b906000526020600020906007020160009150905080600001549080600101604051806080016040529081600082015481526020016001820154815260200160028201548152602001600382018054610c5990612afd565b80601f0160208091040260200160405190810160405280929190818152602001828054610c8590612afd565b8015610cd25780601f10610ca757610100808354040283529160200191610cd2565b820191906000526020600020905b815481529060010190602001808311610cb557829003601f168201915b5050509190925250506040805180820190915260058401805460ff16151582526006850180549495949293509091602084019190610d0f90612afd565b80601f0160208091040260200160405190810160405280929190818152602001828054610d3b90612afd565b8015610d885780601f10610d5d57610100808354040283529160200191610d88565b820191906000526020600020905b815481529060010190602001808311610d6b57829003601f168201915b505050505081525050905083565b61096b838383604051806020016040528060008152506112d4565b60058181548110610dc157600080fd5b906000526020600020906005020160009150905080600001549080600101604051806080016040529081600082015481526020016001820154815260200160028201548152602001600382018054610e1890612afd565b80601f0160208091040260200160405190810160405280929190818152602001828054610e4490612afd565b8015610e915780601f10610e6657610100808354040283529160200191610e91565b820191906000526020600020905b815481529060010190602001808311610e7457829003601f168201915b505050505081525050905082565b60008490506000604051806101400160405280610ebb8861191b565b8152602001876001600160a01b03168152602001836001600160a01b03166306fdde036040518163ffffffff1660e01b8152600401600060405180830381865afa158015610f0d573d6000803e3d6000fd5b505050506040513d6000823e601f3d908101601f19168201604052610f359190810190612f38565b81526040805160208181018352600082528301528082018890525163c87b56dd60e01b8152600481018890526060909101906001600160a01b0385169063c87b56dd90602401600060405180830381865afa158015610f98573d6000803e3d6000fd5b505050506040513d6000823e601f3d908101601f19168201604052610fc09190810190612f38565b8152602001604051806020016040528060008152508152602001336001600160a01b03168152602001856001600160a01b03168152602001604051806020016040528060008152508152509050611018868633611b06565b1561102c576110278184611b81565b611098565b611037308633611b06565b15611046576110278184611b81565b60405162461bcd60e51b815260206004820152602160248201527f43616c6c657220646f6573206e6f74206f776e20737065636966696564204e466044820152601560fa1b60648201526084016108ca565b505050505050565b565b3360009081526002602052604090205460ff166110d15760405162461bcd60e51b81526004016108ca90612d7e565b6110de6020820182612f6c565b61096b5761096b82611d5b565b6040805180820190915260008152606060208201523360009081526002602052604090205460ff1661112f5760405162461bcd60e51b81526004016108ca90612d7e565b600061113e6060840184612b7e565b81019061114b9190612f87565b905061115984843583611802565b604051806040016040528060011515815260200160405160200161119d906020808252600c908201526b1058dadb9bdddb195919d95960a21b604082015260600190565b60408051601f198184030181529190529052949350505050565b6000818152600860205260408120546001600160a01b0316806107975760405162461bcd60e51b8152602060048201526018602482015277115490cdcc8c4e881a5b9d985b1a59081d1bdad95b88125160421b60448201526064016108ca565b60006001600160a01b0382166112815760405162461bcd60e51b815260206004820152602960248201527f4552433732313a2061646472657373207a65726f206973206e6f7420612076616044820152683634b21037bbb732b960b91b60648201526084016108ca565b506001600160a01b031660009081526009602052604090205490565b6112a561144d565b6110a06000611dee565b6060600780546107ac90612afd565b610343338383611e3e565b6000610797826111b7565b6112de3383611598565b6112fa5760405162461bcd60e51b81526004016108ca90612b31565b61130684848484611f0c565b50505050565b6060611317826114cb565b600061132e60408051602081019091526000815290565b9050600081511161134e5760405180602001604052806000815250611379565b8061135884611f3f565b6040516020016113699291906130d9565b6040516020818303038152906040525b9392505050565b600080611391600160a01b8461311e565b936001600160a01b0390931692915050565b60006001600160a01b0382166113bd84600160a01b613140565b611379919061315f565b60038181548110610dc157600080fd5b6113df61144d565b6001600160a01b0381166114445760405162461bcd60e51b815260206004820152602660248201527f4f776e61626c653a206e6577206f776e657220697320746865207a65726f206160448201526564647265737360d01b60648201526084016108ca565b610b4281611dee565b6000546001600160a01b031633146110a05760405162461bcd60e51b815260206004820181905260248201527f4f776e61626c653a2063616c6c6572206973206e6f7420746865206f776e657260448201526064016108ca565b6001600160a01b03166000908152600260205260409020805460ff19166001179055565b6000818152600860205260409020546001600160a01b0316610b425760405162461bcd60e51b8152602060048201526018602482015277115490cdcc8c4e881a5b9d985b1a59081d1bdad95b88125160421b60448201526064016108ca565b6000818152600a6020526040902080546001600160a01b0319166001600160a01b038416908117909155819061155f826111b7565b6001600160a01b03167f8c5be1e5ebec7d5bd14f71427d1e84f3dd0314c0f7b2291e5b200ac8c7c3b92560405160405180910390a45050565b6000806115a4836111b7565b9050806001600160a01b0316846001600160a01b031614806115eb57506001600160a01b038082166000908152600b602090815260408083209388168352929052205460ff165b806109925750836001600160a01b03166116048461082f565b6001600160a01b031614949350505050565b826001600160a01b0316611629826111b7565b6001600160a01b03161461164f5760405162461bcd60e51b81526004016108ca90613177565b6001600160a01b0382166116b15760405162461bcd60e51b8152602060048201526024808201527f4552433732313a207472616e7366657220746f20746865207a65726f206164646044820152637265737360e01b60648201526084016108ca565b826001600160a01b03166116c4826111b7565b6001600160a01b0316146116ea5760405162461bcd60e51b81526004016108ca90613177565b6000818152600a6020908152604080832080546001600160a01b03199081169091556001600160a01b0387811680865260098552838620805460001901905590871680865283862080546001019055868652600890945282852080549092168417909155905184937fddf252ad1be2c89b69c2b068fc378daa952ba7f163c4a11628f55a4df523b3ef91a4505050565b610b428160405160240161178e9190612685565b60408051601f198184030181529190526020810180516001600160e01b031663104c13eb60e21b179052611fd1565b610b42816040516024016117d391815260200190565b60408051601f198184030181529190526020810180516001600160e01b031663f5b1bba960e01b179052611fd1565b600061180d83611ff2565b9050600061181a85611ff2565b9050600082826040516020016118319291906131bc565b6040516020818303038152906040529050600061185e611858866000015160008551612121565b836121ed565b905080156118fb576000806118768760800151611380565b60208901516101008a015160808b01516040516323b872dd60e01b81523060048201526001600160a01b039283166024820152604481019190915293955091935016906323b872dd90606401600060405180830381600087803b1580156118dc57600080fd5b505af11580156118f0573d6000803e3d6000fd5b505050505050610be9565b610be9856101000151611916876080015188602001516113a3565b612257565b604080518082018252601081526f181899199a1a9b1b9c1cb0b131b232b360811b60208201528151602a80825260608281019094526001600160a01b0385169291600091602082018180368337019050509050600360fc1b81600081518110611986576119866131f8565b60200101906001600160f81b031916908160001a905350600f60fb1b816001815181106119b5576119b56131f8565b60200101906001600160f81b031916908160001a90535060005b6014811015611afd57826004856119e784600c61315f565b602081106119f7576119f76131f8565b1a60f81b6001600160f81b031916901c60f81c60ff1681518110611a1d57611a1d6131f8565b01602001516001600160f81b03191682611a38836002613140565b611a4390600261315f565b81518110611a5357611a536131f8565b60200101906001600160f81b031916908160001a9053508284611a7783600c61315f565b60208110611a8757611a876131f8565b825191901a600f16908110611a9e57611a9e6131f8565b01602001516001600160f81b03191682611ab9836002613140565b611ac490600361315f565b81518110611ad457611ad46131f8565b60200101906001600160f81b031916908160001a90535080611af58161320e565b9150506119cf565b50949350505050565b6000816001600160a01b0316846001600160a01b0316636352211e856040518263ffffffff1660e01b8152600401611b4091815260200190565b602060405180830381865afa158015611b5d573d6000803e3d6000fd5b505050506040513d601f19601f820116820180604052508101906116049190613227565b6001600160401b0381166000908152600e6020526040902054611bdd5760405162461bcd60e51b815260206004820152601460248201527318da185a5b881b9bdd0818dbdb999a59dd5c995960621b60448201526064016108ca565b60208201516080830151604051632142170760e11b815233600482015230602482015260448101919091526001600160a01b03909116906342842e0e90606401600060405180830381600087803b158015611c3757600080fd5b505af1158015611c4b573d6000803e3d6000fd5b50505050600082604051602001611c629190613244565b60405160208183030381529060405290507ff9817ecee5196b958069f10e74a75ebd706579bf90abf1580f70707aeb87fd6e81604051611ca29190612685565b60405180910390a16000611cb9426236ee8061315f565b611cc790633b9aca00613140565b6001546001600160401b0385166000908152600e6020908152604080832054600d909252918290205491516301f3a58360e41b81529394506001600160a01b0392831693631f3a583093611d2393169087908790600401613352565b600060405180830381600087803b158015611d3d57600080fd5b505af1158015611d51573d6000803e3d6000fd5b5050505050505050565b6000611d6a6060830183612b7e565b810190611d779190612f87565b602081015161010082015160808301516040516323b872dd60e01b81523060048201526001600160a01b039283166024820152604481019190915292935016906323b872dd90606401600060405180830381600087803b158015611dda57600080fd5b505af1158015611098573d6000803e3d6000fd5b600080546001600160a01b038381166001600160a01b0319831681178455604051919092169283917f8be0079c531659141344cd1fd0a4f28419497f9722a3daafe3b4186f6b6457e09190a35050565b816001600160a01b0316836001600160a01b031603611e9f5760405162461bcd60e51b815260206004820152601960248201527f4552433732313a20617070726f766520746f2063616c6c65720000000000000060448201526064016108ca565b6001600160a01b038381166000818152600b6020908152604080832094871680845294825291829020805460ff191686151590811790915591519182527f17307eab39ab6107e8899845ad3d59bd9653f200f220920489ca2b5937696c31910160405180910390a3505050565b611f17848484611616565b611f23848484846123e2565b6113065760405162461bcd60e51b81526004016108ca9061338b565b60606000611f4c836124e0565b60010190506000816001600160401b03811115611f6b57611f6b6126dd565b6040519080825280601f01601f191660200182016040528015611f95576020820181803683370190505b5090508181016020015b600019016f181899199a1a9b1b9c1cb0b131b232b360811b600a86061a8153600a8504945084611f9f57509392505050565b80516a636f6e736f6c652e6c6f67602083016000808483855afa5050505050565b606060005b60208160ff1610801561202b5750828160ff166020811061201a5761201a6131f8565b1a60f81b6001600160f81b03191615155b15612042578061203a816133dd565b915050611ff7565b60008160ff166001600160401b0381111561205f5761205f6126dd565b6040519080825280601f01601f191660200182016040528015612089576020820181803683370190505b509050600091505b60208260ff161080156120c55750838260ff16602081106120b4576120b46131f8565b1a60f81b6001600160f81b03191615155b1561137957838260ff16602081106120df576120df6131f8565b1a60f81b818360ff16815181106120f8576120f86131f8565b60200101906001600160f81b031916908160001a90535081612119816133dd565b925050612091565b606083600061213085856133fc565b6001600160401b03811115612147576121476126dd565b6040519080825280601f01601f191660200182016040528015612171576020820181803683370190505b509050845b848110156121e357828181518110612190576121906131f8565b01602001516001600160f81b031916826121aa88846133fc565b815181106121ba576121ba6131f8565b60200101906001600160f81b031916908160001a905350806121db8161320e565b915050612176565b5095945050505050565b6000815183511461220057506000610797565b816040516020016122119190613413565b60405160208183030381529060405280519060200120836040516020016122389190613413565b6040516020818303038152906040528051906020012014905092915050565b6001600160a01b0382166122ad5760405162461bcd60e51b815260206004820181905260248201527f4552433732313a206d696e7420746f20746865207a65726f206164647265737360448201526064016108ca565b6000818152600860205260409020546001600160a01b0316156123125760405162461bcd60e51b815260206004820152601c60248201527f4552433732313a20746f6b656e20616c7265616479206d696e7465640000000060448201526064016108ca565b6000818152600860205260409020546001600160a01b0316156123775760405162461bcd60e51b815260206004820152601c60248201527f4552433732313a20746f6b656e20616c7265616479206d696e7465640000000060448201526064016108ca565b6001600160a01b038216600081815260096020908152604080832080546001019055848352600890915280822080546001600160a01b0319168417905551839291907fddf252ad1be2c89b69c2b068fc378daa952ba7f163c4a11628f55a4df523b3ef908290a45050565b60006001600160a01b0384163b156124d857604051630a85bd0160e11b81526001600160a01b0385169063150b7a029061242690339089908890889060040161342f565b6020604051808303816000875af1925050508015612461575060408051601f3d908101601f1916820190925261245e91810190613462565b60015b6124be573d80801561248f576040519150601f19603f3d011682016040523d82523d6000602084013e612494565b606091505b5080516000036124b65760405162461bcd60e51b81526004016108ca9061338b565b805181602001fd5b6001600160e01b031916630a85bd0160e11b149050610992565b506001610992565b60008072184f03e93ff9f4daa797ed6e38ed64bf6a1f0160401b831061251f5772184f03e93ff9f4daa797ed6e38ed64bf6a1f0160401b830492506040015b6d04ee2d6d415b85acef8100000000831061254b576d04ee2d6d415b85acef8100000000830492506020015b662386f26fc10000831061256957662386f26fc10000830492506010015b6305f5e1008310612581576305f5e100830492506008015b612710831061259557612710830492506004015b606483106125a7576064830492506002015b600a83106107975760010192915050565b6001600160a01b0381168114610b4257600080fd5b80356125d8816125b8565b919050565b6000602082840312156125ef57600080fd5b8135611379816125b8565b6001600160e01b031981168114610b4257600080fd5b60006020828403121561262257600080fd5b8135611379816125fa565b60005b83811015612648578181015183820152602001612630565b838111156113065750506000910152565b6000815180845261267181602086016020860161262d565b601f01601f19169290920160200192915050565b6020815260006113796020830184612659565b6000602082840312156126aa57600080fd5b5035919050565b600080604083850312156126c457600080fd5b82356126cf816125b8565b946020939093013593505050565b634e487b7160e01b600052604160045260246000fd5b60405161014081016001600160401b0381118282101715612716576127166126dd565b60405290565b604051601f8201601f191681016001600160401b0381118282101715612744576127446126dd565b604052919050565b60006001600160401b03821115612765576127656126dd565b50601f01601f191660200190565b600082601f83011261278457600080fd5b81356127976127928261274c565b61271c565b8181528460208386010111156127ac57600080fd5b816020850160208301376000918101602001919091529392505050565b600080600080608085870312156127df57600080fd5b84356127ea816125b8565b935060208501356127fa816125b8565b92506040850135915060608501356001600160401b0381111561281c57600080fd5b61282887828801612773565b91505092959194509250565b60008060006060848603121561284957600080fd5b8335612854816125b8565b92506020840135612864816125b8565b929592945050506040919091013590565b60006080828403121561288757600080fd5b50919050565b600080604083850312156128a057600080fd5b8235915060208301356001600160401b038111156128bd57600080fd5b6128c985828601612875565b9150509250929050565b80511515825260006020820151604060208501526109926040850182612659565b60208152600061137960208301846128d3565b80518252602081015160208301526040810151604083015260006060820151608060608501526109926080850182612659565b8381526060602082015260006129536060830185612907565b828103604084015261296581856128d3565b9695505050505050565b8281526040602082015260006109926040830184612907565b6000806000806080858703121561299e57600080fd5b84356129a9816125b8565b93506020850135925060408501356129c0816125b8565b915060608501356001600160401b03811681146129dc57600080fd5b939692955090935050565b6000806000606084860312156129fc57600080fd5b8335925060208401356001600160401b0380821115612a1a57600080fd5b612a2687838801612875565b93506040860135915080821115612a3c57600080fd5b50840160408187031215612a4f57600080fd5b809150509250925092565b803580151581146125d857600080fd5b60008060408385031215612a7d57600080fd5b8235612a88816125b8565b9150612a9660208401612a5a565b90509250929050565b60008060408385031215612ab257600080fd5b823591506020830135612ac4816125b8565b809150509250929050565b60008060408385031215612ae257600080fd5b8235612aed816125b8565b91506020830135612ac4816125b8565b600181811c90821680612b1157607f821691505b60208210810361288757634e487b7160e01b600052602260045260246000fd5b6020808252602d908201527f4552433732313a2063616c6c6572206973206e6f7420746f6b656e206f776e6560408201526c1c881bdc88185c1c1c9bdd9959609a1b606082015260800190565b6000808335601e19843603018112612b9557600080fd5b8301803591506001600160401b03821115612baf57600080fd5b602001915036819003821315612bc457600080fd5b9250929050565b600082601f830112612bdc57600080fd5b8151612bea6127928261274c565b818152846020838601011115612bff57600080fd5b61099282602083016020870161262d565b80516125d8816125b8565b600060208284031215612c2d57600080fd5b81516001600160401b0380821115612c4457600080fd5b908301906101408286031215612c5957600080fd5b612c616126f3565b825182811115612c7057600080fd5b612c7c87828601612bcb565b825250612c8b60208401612c10565b6020820152604083015182811115612ca257600080fd5b612cae87828601612bcb565b604083015250606083015182811115612cc657600080fd5b612cd287828601612bcb565b6060830152506080830151608082015260a083015182811115612cf457600080fd5b612d0087828601612bcb565b60a08301525060c083015182811115612d1857600080fd5b612d2487828601612bcb565b60c083015250612d3660e08401612c10565b60e0820152610100612d49818501612c10565b908201526101208381015183811115612d6157600080fd5b612d6d88828701612bcb565b918301919091525095945050505050565b6020808252601b908201527f756e617574686f72697a656420494243206d6964646c65776172650000000000604082015260600190565b600060808236031215612dc757600080fd5b604051608081016001600160401b038282108183111715612dea57612dea6126dd565b816040528435835260208501356020840152604085013560408401526060850135915080821115612e1a57600080fd5b50612e2736828601612773565b60608301525092915050565b601f82111561096b57600081815260208120601f850160051c81016020861015612e5a5750805b601f850160051c820191505b8181101561109857828155600101612e66565b81516001600160401b03811115612e9257612e926126dd565b612ea681612ea08454612afd565b84612e33565b602080601f831160018114612edb5760008415612ec35750858301515b600019600386901b1c1916600185901b178555611098565b600085815260208120601f198616915b82811015612f0a57888601518255948401946001909101908401612eeb565b5085821015612f285787850151600019600388901b60f8161c191681555b5050505050600190811b01905550565b600060208284031215612f4a57600080fd5b81516001600160401b03811115612f6057600080fd5b61099284828501612bcb565b600060208284031215612f7e57600080fd5b61137982612a5a565b600060208284031215612f9957600080fd5b81356001600160401b0380821115612fb057600080fd5b908301906101408286031215612fc557600080fd5b612fcd6126f3565b823582811115612fdc57600080fd5b612fe887828601612773565b825250612ff7602084016125cd565b602082015260408301358281111561300e57600080fd5b61301a87828601612773565b60408301525060608301358281111561303257600080fd5b61303e87828601612773565b6060830152506080830135608082015260a08301358281111561306057600080fd5b61306c87828601612773565b60a08301525060c08301358281111561308457600080fd5b61309087828601612773565b60c0830152506130a260e084016125cd565b60e08201526101006130b58185016125cd565b9082015261012083810135838111156130cd57600080fd5b612d6d88828701612773565b600083516130eb81846020880161262d565b8351908301906130ff81836020880161262d565b01949350505050565b634e487b7160e01b600052601160045260246000fd5b60008261313b57634e487b7160e01b600052601260045260246000fd5b500490565b600081600019048311821515161561315a5761315a613108565b500290565b6000821982111561317257613172613108565b500190565b60208082526025908201527f4552433732313a207472616e736665722066726f6d20696e636f72726563742060408201526437bbb732b960d91b606082015260800190565b600083516131ce81846020880161262d565b602f60f81b90830190815283516131ec81600184016020880161262d565b01600101949350505050565b634e487b7160e01b600052603260045260246000fd5b60006001820161322057613220613108565b5060010190565b60006020828403121561323957600080fd5b8151611379816125b8565b6020815260008251610140806020850152613263610160850183612659565b9150602085015161327f60408601826001600160a01b03169052565b506040850151601f198086850301606087015261329c8483612659565b935060608701519150808685030160808701526132b98483612659565b9350608087015160a087015260a08701519150808685030160c08701526132e08483612659565b935060c08701519150808685030160e08701526132fd8483612659565b935060e0870151915061010061331d818801846001600160a01b03169052565b8701519150610120613339878201846001600160a01b03169052565b8701518685039091018387015290506129658382612659565b8481528360208201526080604082015260006133716080830185612659565b90506001600160401b038316606083015295945050505050565b60208082526032908201527f4552433732313a207472616e7366657220746f206e6f6e20455243373231526560408201527131b2b4bb32b91034b6b83632b6b2b73a32b960711b606082015260800190565b600060ff821660ff81036133f3576133f3613108565b60010192915050565b60008282101561340e5761340e613108565b500390565b6000825161342581846020870161262d565b9190910192915050565b6001600160a01b038581168252841660208201526040810183905260806060820181905260009061296590830184612659565b60006020828403121561347457600080fd5b8151611379816125fa56fea2646970667358221220c37da2bdc3876d34a1adf771370605b574b0f0059ecfd55b132692b6f1f5eea064736f6c634300080f0033","linkReferences":{}},"methodIdentifiers":{"CreateOrUpdateClass()":"a4edb083","GetOwner(uint256)":"af43fb69","ackPackets(uint256)":"4252ae9b","approve(address,uint256)":"095ea7b3","authorizeMiddleware(address)":"3b90b042","authorizedMws(address)":"3a7fbcbd","balanceOf(address)":"70a08231","combineUintAndAddress(uint256,address)":"d9b25ece","extractUintAndAddress(uint256)":"ce19c33d","getApproved(uint256)":"081812fc","getChainId()":"3408e470","getClass()":"57e61ea4","getNFT(address,uint256)":"2207bdcf","initiateSend(address,uint256,address,uint64)":"5619de3f","isApprovedForAll(address,address)":"e985e9c5","mw()":"a742d78c","name()":"06fdde03","onERC721Received(address,address,uint256,bytes)":"150b7a02","onRecvUniversalPacket(bytes32,(bytes32,uint256,bytes32,bytes))":"5b761585","onRecvUniversalPacketTest(bytes32,(bytes32,uint256,bytes32,bytes))":"2eee770a","onTimeoutUniversalPacket(bytes32,(bytes32,uint256,bytes32,bytes))":"400d9f5d","onUniversalAcknowledgement(bytes32,(bytes32,uint256,bytes32,bytes),(bool,bytes))":"588152ca","owner()":"8da5cb5b","ownerOf(uint256)":"6352211e","recvedPackets(uint256)":"f12b758a","renounceOwnership()":"715018a6","safeTransferFrom(address,address,uint256)":"42842e0e","safeTransferFrom(address,address,uint256,bytes)":"b88d4fde","setApprovalForAll(address,bool)":"a22cb465","setDefaultMw(address)":"00e82cef","supportsInterface(bytes4)":"01ffc9a7","symbol()":"95d89b41","timeoutPackets(uint256)":"4eeb7391","tokenURI(uint256)":"c87b56dd","transferFrom(address,address,uint256)":"23b872dd","transferOwnership(address)":"f2fde38b"},"id":1}